:020000040800F2
:100000000040002001270008472700084D2700086E
:1000100000000000000000000000000000000000E0
:10002000000000000000000000000000532700084E
:1000300000000000000000005927000851280008B7
:100040005F270008652700086B2700087127000854
:10005000772700087D2700088327000889270008E4
:100060008F270008952700089B270008A127000874
:10007000A7270008AD270008B3270008B927000804
:10008000BF270008C5270008CB270008252800083F
:10009000D12700083D280008D7270008DD270008E1
:1000A000E3270008E9270008EF270008F5270008E4
:1000B000FB27000801280008072800080D28000871
:1000C00010B5064C2378002B07D1054B002B02D02E
:1000D000044800E000BF0123237010BD140000207D
:1000E00000000000B0280008044B10B5002B03D01E
:1000F0000349044800E000BF10BDC04600000000F6
:1001000018000020B02800080023C25C0133002A38
:10011000FBD1581E70470000002243088B4274D365
:1001200003098B425FD3030A8B4244D3030B8B42F8
:1001300028D3030C8B420DD3FF22090212BA030C01
:100140008B4202D31212090265D0030B8B4219D3E2
:1001500000E0090AC30B8B4201D3CB03C01A524102
:10016000830B8B4201D38B03C01A5241430B8B424A
:1001700001D34B03C01A5241030B8B4201D30B0333
:10018000C01A5241C30A8B4201D3CB02C01A52415A
:10019000830A8B4201D38B02C01A5241430A8B421D
:1001A00001D34B02C01A5241030A8B4201D30B0206
:1001B000C01A5241CDD2C3098B4201D3CB01C01A20
:1001C000524183098B4201D38B01C01A524143092A
:1001D0008B4201D34B01C01A524103098B4201D318
:1001E0000B01C01A5241C3088B4201D3CB00C01A85
:1001F000524183088B4201D38B00C01A52414308FD
:100200008B4201D34B00C01A5241411A00D2014621
:10021000524110467047FFE701B5002000F006F894
:1002200002BDC0460029F7D076E770477047C04648
:10023000F0B5DE4657464E464546E0B589B0142235
:10024000002103A802F02CFB464B596980200003D3
:10025000014359615A6902400092009A596980200D
:100260008002014359615A6902400192019A5A6918
:100270008021C9020A435A615B690B400293029BC9
:10028000394C3A4B984600222100180002F00DF834
:10029000D0239B009A469027FF05002219003800C2
:1002A00002F003F8FE239B009946314D002219000D
:1002B000280001F0FAFF0394012604960024059417
:1002C000069403A9404601F01BFF0F2303930494F7
:1002D000059403A9404601F013FF0C2303930A3B46
:1002E0009B4604930594013398460693079603A909
:1002F000380001F005FF53460393049605940694D5
:1003000003A9380001F0FCFE1A4B039304940594F2
:1003100003A9280001F0F4FEE0231B0203935B46CF
:100320000493059443460693079403A9280001F01B
:10033000E7FE80231B0203930494059403A938006D
:1003400001F0DEFE4B46039304960594069403A940
:10035000280001F0D5FE09B0F0BCBB46B246A94664
:10036000A046F0BD00100240F07F000000080048E9
:10037000000400480710000072B6FEE700B585B023
:100380000C22002101A802F08BFA2148214B0360C6
:10039000002343608360C360012202610421416144
:1003A000037643768376C376C221FF31C16103624F
:1003B0009E39FF394354826200F0F4FD00281FD1BA
:1003C0000023019380235B01029380235B05039349
:1003D00001A90F4800F0A8FE002813D101230193C2
:1003E00001A90B4800F0A0FE00280DD107230193BE
:1003F00001A9074800F098FE002807D105B000BD0C
:10040000FFF7BAFFFFF7B8FFFFF7B6FFFFF7B4FF3C
:10041000300000200024014010B51248124B036048
:10042000124B4360002383600122C2600361436179
:100430008361C361036201F01DFC00280CD100211F
:10044000084801F007FE002808D10021054801F006
:100450002DFE002804D110BDFFF78EFFFFF78CFFA3
:10046000FFF78AFF70000020005800405D3E3020FA
:1004700010B50948094B03602F23436000238360B4
:100480006422C2600361836102F0FEF8002800D19B
:1004900010BDFFF771FFC046BC00002000200040E7
:1004A00010B50948094B03602F2343600023836084
:1004B000074AC26003614361836102F0E5F80028E6
:1004C00000D110BDFFF758FF70010020004401402B
:1004D0001027000000B593B03422002105A802F0D7
:1004E000DFF91022002101A802F0DAF93023059388
:1004F0002F3B0D930A930F330B9305A800F0BAFE20
:1005000000280ED107230193043B02930023039399
:100510000493012101A801F099F9002803D113B037
:1005200000BDFFF729FFFFF727FF000010B501F01E
:1005300057FAFFF7CFFFFFF77BFEFFF71FFFFFF72D
:100540006BFFFFF795FFFFF7ABFF054801F016FFC4
:10055000044801F013FF00F0DDF800F057F9FCE764
:10056000BC0000207001002010B50400074B026899
:100570009A4204D02268064B9A4203D010BD00F084
:1005800091F9F7E700F0CAF8F8E7C04600440140E7
:100590000020004082B00A4B996901221143996101
:1005A00099690A400092009ADA69802149050A4354
:1005B000DA61DB690B400193019B02B07047C046D2
:1005C0000010024010B588B004001422002103A8D6
:1005D00002F066F92268114B9A4201D008B010BDB2
:1005E0000F4B996980208000014399619A6902400C
:1005F0000192019A5A69802189020A435A615B6912
:100600000B400293029B83230393803B0493713836
:10061000FF3803A9C00501F073FDDFE700240140A6
:100620000010024010B588B004001422002103A875
:1006300002F036F92268134B9A4201D008B010BD7F
:10064000114C62698021C9020A43626163690B40EF
:100650000193019BC0231B010393122304930F3BBF
:100660000693023B079303A9084801F049FDE2699C
:100670008021C9030A43E261E3690B400293029BB4
:10068000DCE7C0460058004000100240000400486B
:1006900000B583B00368174A934204D0164A9342C8
:1006A00014D003B000BD154AD16980204000014339
:1006B000D161D36903400093009B00220221ED38F1
:1006C00001F0FAFD132001F027FEEAE70B4A9169D9
:1006D0008020800201439161936903400193019B53
:1006E00000220121152001F0E7FD152001F014FE84
:1006F000D7E7C046002000400044014000100240FF
:100700007047704710B500F083FA00F065FA00F00A
:1007100077FB10BD10B500F0E7F910BD024A136871
:10072000013313607047C04624020020014B186853
:100730007047C0462402002010B50400FFF7F6FF02
:10074000022C07D0032C08D0012C00D010BD044B84
:100750001861FBE7024B9861F8E7014B1862F5E777
:100760002402002010B50400FFF7E0FF022C0FD098
:10077000032C10D0012C08D00023C31A022C11D056
:10078000032C13D0012C09D010BD0A4B1B69F4E7D0
:10079000084B9B69F1E7074B1B6AEEE7054A536379
:1007A0005061F1E7034A9363D061EDE7014AD363F7
:1007B0005062E9E72402002010B50400FFF7B6FFFD
:1007C000022C0FD0032C10D0012C08D00023C31A08
:1007D000022C11D0032C13D0012C09D010BD0A4BD0
:1007E0009B6AF4E7084BDB6AF1E7074B1B6BEEE70C
:1007F000054A13649062F1E7034A5364D062EDE75F
:10080000014A93641063E9E72402002010B50F4AFF
:100810005623D35C012B09D00420FFF78DFF042061
:10082000FFF7A0FF0420FFF7C7FF10BD1300084A21
:100830001A665622002199540320FFF77DFF0320FA
:10084000FFF790FF0320FFF7B7FFEEE72402002039
:100850000307000810B5114B5A68501C5860542209
:10086000012199546331FFF7DDFC002906D10B4BC0
:10087000DA680132DA60562201319954074B084A8E
:100880009A655422002199540120FFF755FF012059
:10089000FFF768FF0120FFF78FFF10BD2402002043
:1008A0000107000810B50B4B9A6801329A60552277
:1008B000012199540849D965002199540220FFF774
:1008C0003BFFFFF71FFF0220FFF74CFF0220FFF75F
:1008D00073FF10BD2402002005070008002306E076
:1008E000044A2021D154044A0B31D1540133632BE3
:1008F000F6DD70478C060020F0060020014B1880C2
:1009000059807047880200207F280ED83F290CD8D4
:10091000012A0BD0CB08DB0118180723194001224C
:100920008A4008490B5C93430B547047CB08DB01AA
:100930001818072319408A4002490B5C13430B54D3
:10094000F3E7C0468C020020F8B5CE46474680B596
:1009500081460D009046244B1B880A789B187F2BFC
:100960003DDC214B5B884A789B183F2B39DC002605
:1009700020E01D4B1888598843465A425A41D2B24A
:10098000891989B2001980B2FFF7BEFF01342B78B4
:10099000A3420ED93B00A3401B04EAD5124B188892
:1009A0005988891989B2001980B24246FFF7ACFF15
:1009B000ECE701366B78B34207D94A4653439B199B
:1009C0005B006A689F5A0024E1E72B78064A118889
:1009D0005B1813804846C0BCB946B046F8BD00203D
:1009E000F9E70020F7E7C0468802002070B5002430
:1009F00015E02500621CD3009B1A7F2B12DCE0005F
:100A0000001B80B20021FFF779FF104B585D2038A2
:100A1000C0B201220E49FFF797FF0134E4B2442C23
:100A2000E7D970BDFF2B08DC2300123B0720584399
:100A300080B20A21FFF762FFE7E72300243B07208B
:100A4000584380B21421FFF759FFDEE78C060020DF
:100A50000000002000B585B000236A461373507370
:100A6000FA239B000093022303AA7821024801F095
:100A700067F905B000BDC0467000002010B5002821
:100A800006D100218022D200024801F009FF10BDEA
:100A9000FF21F7E78C02002010B584B000241BE092
:100AA00020005038C0B2FFF7D5FF0020FFF7D2FF7B
:100AB0001020FFF7CFFFE301094A9B18FA229200AA
:100AC00002928022019200930123403A7821054846
:100AD00001F0F0F90134E4B2072CE1D904B010BD03
:100AE0008C0200207000002070B5AE20FFF7B2FF2E
:100AF000A820FFF7AFFF1F20FFF7ACFFD320FFF7C1
:100B0000A9FF0020FFF7A6FF4020FFF7A3FFA120C9
:100B1000FFF7A0FFC820FFF79DFF8120FFF79AFF96
:100B20007F20FFF797FFA420FFF794FFA620FFF791
:100B300091FFD520FFF78EFF8020FFF78BFF8D20E0
:100B4000FFF788FF1420FFF785FF2E20FFF782FFB5
:100B50002020FFF77FFF1020FFF77CFFDA20FFF750
:100B600079FF0220FFF776FFD920FFF773FF2220DD
:100B7000FFF770FFDB20FFF76DFF2020FFF76AFF14
:100B8000B020FFF767FF0020FFF764FF1020FFF79A
:100B900061FFAF20FFF75EFF0020FFF76FFFFFF759
:100BA0007BFFFFF79BFE0A4C0A4B220023CB23C29C
:100BB00023CB23C2198811809B7893702000FFF704
:100BC000A3FA20232354FFF711FFFFF765FF70BD41
:100BD0008C060020C828000870B5FFF77FFE0A4C7D
:100BE0000A4B220023CB23C223CB23C219881180B6
:100BF0009B7893702000FFF787FA20232354FFF798
:100C0000F5FEFFF749FF70BD8C060020C8280008DC
:100C100070B5754B1B78022B5ED00FD8002B1BD004
:100C2000012B24D1714C00222021200001F03DFB3A
:100C30000122D021200001F038FB18E0032B16D14F
:100C40006A4C00228021200001F02FFB012270213C
:100C5000200001F02AFB0AE0644C00221021200051
:100C600001F023FB0122E021200001F01EFB5F4D7B
:100C70000121280001F012FB44B20221280001F0FA
:100C80000DFB4000044364B20421280001F006FB80
:100C90008000044364B20821280001F0FFFAC0007C
:100CA0000443E4B2524B1C70002C03D0514A136829
:100CB000013313604C4B1B78002B25D1002C23D023
:100CC000072C15D00B2C17D00D2C19D00E2C21D1A0
:100CD000494A232111701DE0444C0022402120008C
:100CE00001F0E3FA0122B021200001F0DEFABEE7B4
:100CF000414A2A2111700DE03F4A3021117009E06C
:100D00003D4A4421117005E0012B12D0022B2AD05C
:100D1000032B42D00133DBB2334A1370032B02D9C9
:100D2000130000221A700F2C51D0344B00221A608D
:100D300070BD002CEAD0072C09D00B2C0BD00D2C49
:100D40000DD00E2CE6D12C4A42211170E2E72A4A3E
:100D500034211170DEE7284A35211170DAE7264A7E
:100D600036211170D6E7002CD2D0072C09D00B2CDD
:100D70000BD00D2C0DD00E2CCCD11F4A432111705D
:100D8000C8E71D4A37211170C4E71B4A382111708A
:100D9000C0E7194A39211170BCE7002CBAD0072CE2
:100DA00009D00B2C0BD00D2C0DD00E2CB2D1124A29
:100DB00033211170AEE7104A31211170AAE70E4AB3
:100DC00032211170A6E70C4A41211170A2E70B4AAB
:100DD000136801331360322BAAD9074B20221A70F3
:100DE000064B00221A60A3E75807002000080048BD
:100DF0006407002060070020080000205C07002036
:100E000070B5614C0121200001F048FA5F4B187069
:100E10000221200001F042FA5D4B187004212000ED
:100E200001F03CFA5B4B1870802190200902C0054C
:100E300001F034FA584B1870584A13780133DBB27A
:100E40001370142B02D9130000221A70534B1B7815
:100E5000092B4ED84C4C00224021200001F025FAED
:100E600000228021200001F020FA80267600002256
:100E70003100200001F019FA8025AD000022290080
:100E8000200001F012FA9024E40500223100200035
:100E900001F00BFA00222900200001F006FA404C74
:100EA00000223100200001F000FA00222900200079
:100EB00001F0FBF980210022C900200001F0F5F9C2
:100EC000802100220901200001F0EFF98021002299
:100ED0004901200001F0E9F9802100228901200068
:100EE00001F0E3F980210022C901200001F0DDF9C1
:100EF00070BD254C01224021200001F0D6F90122CD
:100F00008021200001F0D1F98026760001223100F5
:100F1000200001F0CAF98025AD000122290020003F
:100F200001F0C3F99024E40501223100200001F012
:100F3000BCF901222900200001F0B7F9184C012268
:100F40002900200001F0B1F980210122C900200010
:100F500001F0ABF9802101220901200001F0A5F97F
:100F6000802101224901200001F09FF98021012206
:100F70008901200001F099F980210122C901200096
:100F800001F093F9B4E7C04600040048550700207B
:100F9000560700205707002054070020650700204F
:100FA0000008004870B5041E00D1B4E0836B002B2C
:100FB00000D180E0A36BDB0600D5A6E02268916833
:100FC000042005000D40084200D09EE0A16B534B69
:100FD00019400633FF331943A163916801330B4075
:100FE000012B6ED0D36818218B43A1680B43D360CB
:100FF000226813699B009B0861680B431361226898
:10100000D36847490B40D360237E9B03627ED203A3
:101010001343A17E4A031343A26A012A58D08022B7
:1010200052011343E26813432269022A52D02B4330
:101030002422A25C52001343E27E012A4CD0E269D2
:10104000C221FF318A4202D0216A0A431343216838
:10105000CA681A43CA60E26A802149058A420DD0F3
:10106000012A0BD0022A09D0032A07D0042A05D06E
:10107000052A03D0062A01D0072A0AD1206841692F
:1010800007229143416120684169E56A2A400A4389
:1010900042612268D26823490A409A422BD0A36B4E
:1010A00012229343023A1343A363E36B0F3A1343B1
:1010B000E36301202EE0C36334228354FFF782FAF6
:1010C00078E71368DB079AD4D3681B0497D489E7C1
:1010D0002A00A6E70425AAE7002903D180225202AC
:1010E0001343ACE7A26B20210A43A263E26B1F39D2
:1010F0000A43E263A3E70023E363A36B0322934362
:10110000023A1343A363002004E0A36B10221343AD
:10111000A363012070BD0120FCE7C046FDFEFFFF78
:101120001902FEFFE7FF3F8330B583B004000023C0
:1011300001933433C35C012B00D18AE034230122B4
:10114000C25403689A68520775D4434A486890426B
:1011500056D09A6A01200D68A84002439A62E36A59
:101160008022520593421ED0012B1CD0022B1AD094
:10117000032B18D0042B16D0052B14D0062B12D01D
:10118000072B10D0226850690723034088689842D3
:1011900009D05069072398435061206842698D68DF
:1011A0002B40134343610B681A00103A022A4CD8B3
:1011B0002A4A1268102B0ED0112B09D080235B0411
:1011C0001343264A13600B68102B07D0002037E02A
:1011D0008023DB03F4E780231B04F1E7204B18682E
:1011E0002049FEF799FF83001B185B00019302E082
:1011F000019B013B0193019B002BF9D100201FE0D3
:101200009A6A01200D68A84082439A620B681A000E
:10121000103A022A1BD8114A1268102B09D0112B40
:1012200005D0114B13400D4A1360002008E00F4B0E
:10123000F8E70F4BF6E7836B20221343836301200B
:1012400034230022E25403B030BD0020F8E7002030
:10125000F6E70220F7E7C04601100000082701402A
:101260001000002040420F00FFFFFFFEFFFFBFFF06
:10127000FFFF7FFF70B582B0041E00D17FE20368DC
:10128000DB072BD5B34B5A680C231340042B1DD01E
:10129000B04B5A680C231340082B0ED06368012B07
:1012A00041D0002B56D1AB4B1A68AB490A401A60AB
:1012B0001A68AA490A401A603BE0A64B5B68C02244
:1012C00052021340802252029342E7D1A14B1B6885
:1012D0009B0303D56368002B00D153E223689B076F
:1012E00077D59C4B5B680C221A4262D0994B5A68A6
:1012F0000C231340082B53D0E368002B00D18AE065
:10130000944A136801210B43136000F085FB05002C
:10131000904B1B689B0775D400F07EFB401B022896
:10132000F6D903202CE28B4A116880235B020B4321
:1013300013606368002B25D000F06EFB0500854B21
:101340001B689B03CAD400F067FB401B6428F6D9D6
:10135000032015E2052B09D07E4B1A687E490A400E
:101360001A601A687D490A401A60E2E7794B1968E9
:101370008022D2020A431A601968802252020A436C
:101380001A60D6E700F048FB0500724B1B689B0310
:10139000A4D500F041FB401B6428F6D90320EFE1FF
:1013A0006C4B5B68C02252021340802212029342AF
:1013B000A2D1684B1B689B0703D5E368012B00D0C3
:1013C000E2E164490B68F82293432269D200134397
:1013D0000B6023681B0744D5E369002B2ED05D4AC0
:1013E000536A01210B43536200F016FB0500594B71
:1013F0005B6A9B0735D400F00FFB401B0228F6D92F
:101400000320BDE153490B68F82293432269D200BF
:1014100013430B60DDE74F4A136801218B431360D0
:1014200000F0FAFA05004B4B1B689B07D1D500F082
:10143000F3FA401B0228F6D90320A1E1454A536A7A
:1014400001218B43536200F0E7FA0500414B5B6AD0
:101450009B0706D500F0E0FA401B0228F6D90320CE
:101460008EE123685B0700D480E03A4BDB69DB0048
:101470001DD4384AD169802040050143D161D36928
:1014800003400193019B0125354B1B68DB0510D5FB
:10149000A368012B21D0002B36D12E4B1A6A0121D3
:1014A0008A431A621A6A03318A431A621AE00025D3
:1014B000EAE72B4A116880235B000B43136000F0BE
:1014C000ABFA0600264B1B68DB05E1D400F0A4FA5A
:1014D000801B6428F6D9032052E11E4A136A0121B9
:1014E0000B431362A368002B24D000F095FA06008A
:1014F000184B1B6A9B0737D400F08EFA801B194BE0
:101500009842F5D903203BE1052B09D0114B1A6A0B
:1015100001218A431A621A6A03318A431A62E1E797
:101520000C4B1A6A04210A431A621A6A03390A43E5
:101530001A62D7E700F070FA0600064B1B6A9B0799
:1015400012D500F069FA801B064B9842F5D90320AA
:1015500016E1C04600100240FFFFFEFFFFFFFBFF49
:101560000070004088130000012D39D02368DB068D
:1015700010D56369012B39D0053357D1894A536B94
:1015800004218B435363536BF4318B43A169C9002E
:101590000B43536323689B066ED5824B5A680C231A
:1015A00013400C2B60D07F4B5A680C231340082B40
:1015B00053D0236A002B7ED07A4A516B80235B0282
:1015C0000B43536300F028FA0500764B5B6BDB039B
:1015D00052D400F021FA401B0228F6D90320CFE0B4
:1015E000704AD36970490B40D361BFE76D4B5A6BAA
:1015F00004210A435A635A6B03390A435A6300F0C1
:101600000BFA0500674B5B6B9B0706D400F004FAEE
:10161000401B0228F6D90320B2E062494B6BF82246
:101620009343A269D20013434B63B3E75D4B5A6BFC
:1016300004210A435A635A6B03398A435A6300F000
:10164000EBF90500574B5B6B9B07A3D500F0E4F962
:10165000401B0228F6D9032092E0524B5B68C0225F
:10166000520213409342A4D14E4B5B6BDB0303D574
:10167000236A012B00D089E0636A002B00D187E048
:10168000484A51680C220A40082A60D0022B25D013
:10169000444A136845490B40136000F0BDF904004B
:1016A000404B1B689B0150D500F0B6F9001B022887
:1016B000F6D9032064E03B4A536B3D490B4053632A
:1016C00000F0AAF90500374B5B6BDB03D4D500F0C3
:1016D000A3F9401B0228F6D9032051E0314A1368D0
:1016E00032490B40136000F097F905002D4B1B6841
:1016F0009B0106D500F090F9401B0228F6D9032083
:101700003EE0284BDA6A0F218A43216B0A43DA62F2
:101710005A6828490A40E16AA06A01430A435A60AC
:101720001968802252040A431A6000F075F9040017
:101730001C4B1B689B0106D400F06EF9001B0228AD
:10174000F6D903201CE000201AE0002018E0012B4D
:1017500020D0144B5A68D96AC0235B021340A06A98
:10176000834219D10F230B40216B8B4216D1F023FA
:101770009B031A40E36A9A4212D1002000E0012044
:1017800002B070BD0120FBE70120F9E70120F7E777
:101790000020F5E70120F3E70120F1E70120EFE762
:1017A0000120EDE700100240FFFFFFEFFFFFFFFE0B
:1017B000FFFFFEFFFF7FC2FF10B588B004AA1E4BDB
:1017C00013CB13C21B6813606A461C4B13CB13C2A6
:1017D0001B6813601A4B5A680C231340082B04D063
:1017E0000C2B26D1174808B010BD910C0F231940BF
:1017F00004A8445C1249C96A0B406946C95CC0230D
:101800005B021A4080235B029A4208D0C0235B022D
:101810009A4209D00C48FEF77FFC6043E3E70A4890
:10182000FEF77AFC6043DEE70648FEF775FC60438E
:10183000D9E70548D7E7C0465030000864300008B3
:1018400000100240006CDC0200127A0070B5040047
:101850000D00002800D186E0474B1A680123134091
:101860008B420AD244490B68012293432B430B60FD
:101870000B681A40AA4200D077E023689A070ED579
:101880005B0705D53D4A5168E023DB000B435360FD
:101890003A4A5368F0218B43A1680B435360236895
:1018A000DB0735D56368012B09D0022B24D0032B2D
:1018B00028D0324A1268920705D4012052E02F4AFC
:1018C0001268920353D52D494A680320824313437B
:1018D0004B6000F0A1F80600284B5B680C221A4010
:1018E00063689B009A4213D000F096F8801B244B4B
:1018F0009842F1D9032035E0204A12689201E2D4DF
:1019000001202FE01D4A526BD203DCD4012029E0D4
:10191000194B1A6801231340AB4209D916490B68C9
:10192000012293432B430B600B681A40AA4220D13B
:1019300023685B0706D5114A536812490B40E168DA
:101940000B435360FFF738FF0C4B5A6812090F2303
:1019500013400D4AD35CD8400C4B1860032000F0B4
:1019600017F8002070BD0120FCE70120FAE70120F4
:10197000F8E70120F6E7C0460020024000100240D0
:1019800088130000FFF8FFFF7830000810000020E7
:1019900010B504000F4B1978FA208000FEF7BCFB4D
:1019A00001000D4B1868FEF7B7FB00F0C1FC0028E2
:1019B0000DD1032C01D901200AE0013000222100C1
:1019C000404200F079FC054B1C60002000E0012043
:1019D00010BDC04609000020100000200C000020AF
:1019E00010B5064A136810210B4313600320FFF75C
:1019F000CFFFFEF7CFFD002010BDC0460020024003
:101A0000034A1168034B1B785B1813607047C0468C
:101A10006807002009000020014B18687047C04685
:101A20006807002003689A69920701D500229A622C
:101A300003689A69D20703D49A6901210A439A611B
:101A40007047000070B504686068049D6D0D8026C5
:101A5000F6002E40064D3543A8438905890D120432
:101A600011431943049B19430143616070BDC04693
:101A7000FF63FF03F8B505000F00160003689A69BD
:101A8000D2063BD55A68920104D459688022D2010B
:101A90000A435A602B689C69A20615D47B1CF9D0B6
:101AA000FFF7BAFF801BB84201D8002FF2D16B6C50
:101AB000202213436B644123EA5400232232AB54A7
:101AC000023AAB5401201AE01022DA612B6820247C
:101AD000DC612800FFF7A6FF2A68536808490B401D
:101AE00053606B6C042213436B644123EC5400235A
:101AF0003E32AB54023AAB54012000E00020F8BD66
:101B000000E800FE70B504000D00160023689B6914
:101B10009B071CD4320029002000FFF7ABFF0028F0
:101B200017D16B1CF2D0FFF777FF801BA84201D8BA
:101B3000002DEBD1636C2022134363644123E254F4
:101B400000232232A354023AA354012000E00020D3
:101B500070BD0120FCE7F0B5C64600B507000D00DA
:101B600090461E003B689C692C40641B63425C41AC
:101B7000444516D1731CF5D0FFF74EFF069BC01AE3
:101B8000B04201D8002EEDD17B6C202213437B6440
:101B90004123FA5400232232BB54023ABB540120A1
:101BA00000E0002080BCB846F0BD000070B582B0F7
:101BB000040015001E008023F2B2194800905B0457
:101BC0002000FFF73FFF079A06992000FFF79AFFD2
:101BD00000281ED1012E0ED12368EDB29D62079B15
:101BE0000093069B002280212000FFF7B4FF00280D
:101BF00013D102B070BD23682A0A9A62079A069927
:101C00002000FFF77FFF002805D12368EDB29D6219
:101C1000E5E70120EDE70120EBE70120E9E7C04619
:101C20000020008070B505000C0016002B689B6931
:101C30009B061AD4320021002800FFF71BFF002862
:101C400015D1FFF7E9FE801BA04201D8002CEDD191
:101C50006B6C202213436B644123EA54002322322D
:101C6000AB54023AAB54012070BD0020FCE70120C8
:101C7000FAE7000010B5041E59D04123C35C002BC5
:101C800043D041232422E2542268136801218B436C
:101C900013602268274B61680B40136122689368C8
:101CA00025490B409360E368012B34D022688423DC
:101CB0001B02A1680B439360E368022B32D02268B9
:101CC00051681E4B0B4353602268D3681A490B407E
:101CD000D360236962691343A26912022168134326
:101CE000CB602268E369216A0B43136022681368A2
:101CF00001210B4313600023636441221F31A1546F
:101D000023630132A354002010BD40330022C2548B
:101D1000FEF788FCB5E7226880231B02A1680B430D
:101D20009360C9E72368802212015A60C7E7012047
:101D3000EAE7C046FFFFFFF0FF7FFFFF00800002E1
:101D4000F0B585B004000F00029203930A9D412371
:101D5000C35C202B00D09BE02033C35C012B00D15F
:101D600099E040230122C254FFF756FE060080216D
:101D700000901923012209022000FFF7ECFE002841
:101D800000D08AE041232122E2540133113AE25487
:101D900000236364029A6262039A62856363638DBF
:101DA0009BB2FF2B0BD9FF2323857F3B3F4A009239
:101DB0005B04FF2239002000FFF744FE18E0628D2B
:101DC00092B222858023D2B2384900919B04390017
:101DD0002000FFF737FE0BE0628D92B22285802350
:101DE000D2B2002100919B0439002000FFF72AFEA7
:101DF000638D9BB2002B34D0320029002000FFF706
:101E000081FE00284BD12368626A12789A62636A65
:101E100001336362638D013B9BB26385238D013B7C
:101E20009BB22385628D92B2002AE1D0002BDFD1D4
:101E300000962B00002280212000FFF78CFE002856
:101E40002FD1638D9BB2FF2BC6D9FF2323857F3B08
:101E5000002200925B04FF3239002000FFF7F2FD00
:101E6000C6E7320029002000FFF7DCFE00281AD167
:101E700023682022DA6121684B680D4D2B404B60AE
:101E80004123E25400232232A354023AA35400E037
:101E9000022005B0F0BD0220FBE70120F9E7012098
:101EA000F7E70120F5E70120F3E7C04600200080B6
:101EB00000E800FEF0B587B004000391049205939A
:101EC0000CAB20CB1F884123C35C202B00D0B3E098
:101ED000002D18D0002F16D04023C35C012B00D159
:101EE000ADE040230122C254FFF796FD0600802199
:101EF00000901923012209022000FFF72CFE002880
:101F000006D0012099E080239B006364012094E0C7
:101F100041232122E25401331F32E254002363643F
:101F200065626785636301960E9B0093059B049A27
:101F300003992000FFF73AFE00280FD1638D9BB272
:101F4000FF2B10D9FF2323857F3B002200925B04E7
:101F5000FF3203992000FFF775FD21E040230022A6
:101F6000E254012069E0628D92B222858023D2B2D0
:101F7000002100919B0403992000FFF763FD0FE00F
:101F8000628D92B222858023D2B2002100919B04FF
:101F900003992000FFF756FD638D9BB2002B34D0D0
:101FA00032000E992000FFF7ADFD002849D12368CB
:101FB000626A12789A62636A01336362638D013BDD
:101FC0009BB26385238D013B9BB22385628D92B2C8
:101FD000002AE1D0002BDFD100960E9B0022802149
:101FE0002000FFF7B8FD00282DD1638D9BB2FF2B99
:101FF000C6D9FF2323857F3B002200925B04FF327A
:1020000003992000FFF71EFDC6E732000E9920005D
:10201000FFF708FE002818D123682022DA61216822
:102020004B680B4D2B404B604123E254002322327E
:10203000A354023AA35400E0022007B0F0BD0220EE
:10204000FBE70120F9E70120F7E70120F5E7C046AB
:1020500000E800FEF0B54123C35C202B20D12033E3
:10206000C35C012B1ED040240122025541252423AC
:1020700043550668336893433360066833680A4FF4
:102080003B403360066833681943316001680B6870
:1020900013430B6020234355002303550020F0BD5C
:1020A0000220FCE70220FAE7FFEFFFFFF0B5412333
:1020B000C35C202B1ED12033C35C012B1CD04024D9
:1020C0000122025541252423435506683368934372
:1020D000336006683368094F3B4009021943316099
:1020E00001680B6813430B602023435500230355FD
:1020F0000020F0BD0220FCE70220FAE7FFF0FFFF1E
:10210000F0B583B0002357E084685F000326BE402B
:10211000B4432600CC68BC40344384604468944394
:102120004A681609012232409A402243426053E035
:10213000DC080834A400265805321A4092000F2704
:102140009740BE430F6997403A003243225057E010
:10215000042600E00026A64034003C4302329200F0
:10216000474E9451474A1468EA432600AE434F68ED
:10217000FF0301D52C432600424C266064682600EC
:1021800016404F68BF0301D52C4326003D4C6660C6
:10219000A468260016404F68FF0201D52C43260094
:1021A000384CA660E46822404E68B60201D52A0089
:1021B0002243344CE26001330C682200DA405CD0E8
:1021C00001229A40250015401442F4D003244E68A1
:1021D0003440013C012C97D903224C682240032A49
:1021E00009D0C2685E000324B440A24314008A6888
:1021F000B2402243C26003224C682240022A97D098
:1022000004685E0003221700B740BC434F683A40A1
:10221000B24022430260C02292024C681442CAD0EB
:10222000194CA66901221643A661A46922400192B5
:10223000019A9A08941CA400114EA75903261E4027
:10224000B4000F26A640B7439026F605B04281D0D1
:102250000E4EB0420BD00E4EB0420AD00D4EB042E0
:1022600009D00D4EB04200D172E7052673E7012672
:1022700071E702266FE703266DE703B0F0BDC046A5
:10228000000001400004014000100240000400482A
:1022900000080048000C00480010004803690B4289
:1022A00001D0012070470020FCE7002A01D08161A5
:1022B00070478162FCE7000070B5002811DB8308DD
:1022C000134EC0339B009D5903242040C000FF22C1
:1022D00014008440A54389010A4082402A439A5150
:1022E00070BD0F230340083B9B0806339B00094A3F
:1022F000944663445C6803221040C000FC32150021
:102300008540AC4389010A40824022435A60E7E796
:1023100000E100E000ED00E0002805DB1F2318408D
:102320001E3B8340014A13607047C04600E100E055
:10233000013880235B0498420FD2094A5060094853
:10234000036A1B021B0AC02109060B430362002318
:10235000936007331360002070470120FCE7C046FC
:1023600010E000E000ED00E07047704770477047F4
:102370007047704770477047704700003D23C35C4B
:10238000012B26D13C330222C2540268D3680121BA
:102390000B43D3600368114A93420FD08022D205C9
:1023A00093420BD00E4A934208D00E4A934205D076
:1023B0001A6801210A431A6000200BE0996807227D
:1023C0000A40062A07D01A6801210A431A60002031
:1023D00000E0012070470020FCE7C046002C0140CF
:1023E000000400400040014010B5040003681A6971
:1023F000920711D5DA6892070ED5032252421A616C
:102400000123037703689B699B0700D184E0902335
:10241000C35898470023237723681A69520714D5B5
:10242000DA68520711D5052252421A610223237736
:1024300023689A69C0239B001A4200D174E090235C
:10244000E358200098470023237723681A6912076E
:1024500011D5DA6812070ED5092252421A610423F7
:1024600023772368DB699B0767D09023E35820001C
:1024700098470023237723681A69D20613D5DA68B0
:10248000D20610D5112252421A61082323772368FD
:10249000DA69C0239B001A4258D09023E3582000E9
:1024A00098470023237723681A69D20709D5DA6889
:1024B000D20706D5022252421A618023E358200037
:1024C000984723681A69120609D5DA68120606D5F4
:1024D000812252421A61B023E358200098472368B2
:1024E0001A69520609D5DA68520606D541225242C7
:1024F0001A618823E3582000984723681A699206D6
:1025000009D5DA68920606D5212252421A61A8231B
:10251000E3582000984710BD9823C35898479C2340
:10252000E3582000984775E79823E3582000984720
:102530009C23E3582000984785E79823E358200020
:1025400098479C23E3582000984792E79823E35844
:10255000200098479C23E35820009847A1E70000FB
:102560000368214A904206D08022D205904202D0D0
:102570001E4A904203D1702293434A6813431A4A79
:10258000904212D08022D20590420ED0174A90423B
:102590000BD0174A904208D0164A904205D0164AEE
:1025A000904202D0154A904203D1154A1340CA689E
:1025B0001343802293434A69134303608B68C362C9
:1025C0000B688362084B984208D00A4B984205D0AA
:1025D000094B984202D0094B984201D10B69036321
:1025E000012343617047C046002C014000040040B5
:1025F00000200040004001400044014000480140EC
:10260000FFFCFFFF8023134AC2500433124AC2501A
:102610000433124AC2500433114AC2500433114ADF
:10262000C2500433104AC2500433104AC25004331B
:102630000F4AC25004330F4AC25004330E4AC250EC
:1026400004330E4AC25004330D4AC25004330D4ABB
:10265000C250704769050008692300087523000807
:10266000772300086D2300086F2300086B23000800
:10267000712300087323000879230008F926000855
:10268000FB260008FD26000870B5041E2FD03D2350
:10269000C35C002B1CD03D2502236355210001C9DA
:1026A000FFF75EFF01234622A354083AA3540132E8
:1026B000A3540132A3540132A3540132A354013272
:1026C000A3540132A3540132A3546355002070BDBA
:1026D0003C330022C254FFF795FFA36C002B03D0BC
:1026E0002000A36C9847D6E7024BA364F8E70120CB
:1026F000EDE7C04691060008704770477047704785
:1027000010B50B4B0B4A01E002CA02C30A498B42C7
:10271000FAD30A4B01E0002204C3094A9342FAD3D8
:10272000FFF7EDFF00F098F8FDF700FFFEE7C04669
:102730000000002090300008140000201400002049
:102740006C070020FEE710B5FFF7FCFF10B5FFF7A0
:10275000F9FF10B5FFF7F6FF10B5FFF7F3FF10B55F
:10276000FFF7F0FF10B5FFF7EDFF10B5FFF7EAFF39
:1027700010B5FFF7E7FF10B5FFF7E4FF10B5FFF75F
:10278000E1FF10B5FFF7DEFF10B5FFF7DBFF10B577
:10279000FFF7D8FF10B5FFF7D5FF10B5FFF7D2FF51
:1027A00010B5FFF7CFFF10B5FFF7CCFF10B5FFF75F
:1027B000C9FF10B5FFF7C6FF10B5FFF7C3FF10B58F
:1027C000FFF7C0FF10B5FFF7BDFF10B5FFF7BAFF69
:1027D00010B5FFF7B7FF10B5FFF7B4FF10B5FFF75F
:1027E000B1FF10B5FFF7AEFF10B5FFF7ABFF10B5A7
:1027F000FFF7A8FF10B5FFF7A5FF10B5FFF7A2FF81
:1028000010B5FFF79FFF10B5FFF79CFF10B5FFF75E
:1028100099FF000010B50248FFF7E6FD10BDC04665
:10282000BC00002010B5FFF7F5FF10BD10B5024841
:10283000FFF7DAFD10BDC0467001002010B5FFF7AC
:10284000F5FF10BD10B5FFF7DBF8FEF703F810BD7C
:1028500010B5FFF7F7FF10BD70B500260C4D0D4CFD
:10286000641BA410A64209D1002600F021F80A4DED
:102870000A4C641BA410A64205D170BDB300EB58EE
:1028800098470136EEE7B300EB5898470136F2E778
:102890008830000888300008883000088C30000834
:1028A00003008218934200D1704719700133F9E791
:1028B000F8B5C046F8BC08BC9E467047F8B5C0469F
:0828C000F8BC08BC9E467047FD
:1028C80068747470733A2F2F7777772E616C6C70F9
:1028D80072696D652E636F2E6B7200000000000038
:1028E80000000000000000000000000000000000E0
:1028F8000010001000100010001000100000001060
:102908000000000000280028002800000000000047
:10291800000000000000000000240024007C0024C7
:102928000048007C004800480000000000380054BF
:102938000050003800140054005400380010000003
:1029480000200054005800300028005400140008EB
:102958000000000000100028002800100034004883
:1029680000480034000000000010001000100000B3
:102978000000000000000000000000000008001037
:102988000020002000200020002000200010000867
:1029980000200010000800080008000800080008CF
:1029A800001000200010003800100028000000006F
:1029B80000000000000000000000000000100010EF
:1029C800007C001000100000000000000000000063
:1029D80000000000000000000000001000100010BF
:1029E80000000000000000000000003800000000A7
:1029F80000000000000000000000000000000000CF
:102A0800000000100000000000080008001000107E
:102A180000100010002000200000000000380044D2
:102A28000044005400440044004400380000000002
:102A380000100030005000100010001000100010AE
:102A480000000000003800440044000400080010A2
:102A58000020007C0000000000380044000400183A
:102A680000040004004400380000000000080018BA
:102A7800002800280048007C00080008000000002A
:102A8800007C004000400078000400040044003846
:102A98000000000000380044004000780044004472
:102AA8000044003800000000007C0004000800100A
:102AB8000010002000200020000000000038004422
:102AC800004400380044004400440038000000007E
:102AD8000038004400440044003C0004004400382E
:102AE80000000000000000000010000000000000CE
:102AF80000000010000000000000000000000010AE
:102B0800000000000000001000100010000000008D
:102B1800000C003000400030000C000000000000F5
:102B2800000000000000007C0000007C00000000A5
:102B380000000000000000000060001800040018F9
:102B48000060000000000000003800440004000895
:102B580000100010000000100000000000380044C1
:102B6800004C0054005C00400040003800000000A9
:102B780000100028002800280028007C0044004499
:102B8800000000000078004400440078004400443D
:102B98000044007800000000003800440040004075
:102BA8000040004000440038000000000070004869
:102BB8000044004400440044004800700000000045
:102BC800007C00400040007C004000400040007C49
:102BD80000000000007C00400040007800400040F9
:102BE8000040004000000000003800440040004061
:102BF800005C004400440038000000000044004429
:102C08000044007C004400440044004400000000EC
:102C180000380010001000100010001000100038DC
:102C28000000000000040004000400040004000484
:102C380000440038000000000044004800500060D4
:102C480000500048004800440000000000400040D8
:102C580000400040004000400040007C00000000B0
:102C68000044006C006C00540044004400440044DC
:102C78000000000000440064006400540054004C4C
:102C8800004C0044000000000038004400440044A8
:102C9800004400440044003800000000007800446C
:102CA800004400440078004000400040000000005C
:102CB80000380044004400440044004400540038F4
:102CC80000040000007800440044004400780048F4
:102CD8000048004400000000003800440040003074
:102CE800000800040044003800000000007C0010C8
:102CF800001000100010001000100010000000006C
:102D080000440044004400440044004400440038A7
:102D18000000000000440044004400280028002867
:102D2800001000100000000000440044005400544B
:102D38000054006C0028002800000000004400280F
:102D4800002800100010002800280044000000009F
:102D58000044004400280028001000100010001053
:102D680000000000007C0004000800100010002093
:102D78000040007C00000000001800100010001047
:102D88000010001000100010001000180020002093
:102D980000100010001000100008000800000000DB
:102DA800003000100010001000100010001000107B
:102DB8000010003000100028002800440000000027
:102DC80000000000000000000000000000000000FB
:102DD8000000000000000000000000FE00200010BD
:102DE80000000000000000000000000000000000DB
:102DF8000000000000380044003C0044004C00344F
:102E080000000000004000400058006400440044F6
:102E18000064005800000000000000000038004472
:102E28000040004000440038000000000004000496
:102E38000034004C00440044004C00340000000002
:102E48000000000000380044007C004000440038C6
:102E580000000000000C0010007C001000100010A2
:102E68000010001000000000000000000034004CBA
:102E780000440044004C0034000400780040004046
:102E8800005800640044004400440044000000006E
:102E9800001000000070001000100010001000105A
:102EA800000000000010000000700010001000106A
:102EB80000100010001000E00040004000480050E2
:102EC800006000500048004400000000007000103E
:102ED800001000100010001000100010000000008A
:102EE80000000000007800540054005400540054BE
:102EF8000000000000000000005800640044004486
:102F080000440044000000000000000000380044B5
:102F180000440044004400380000000000000000A5
:102F28000058006400440044006400580040004019
:102F3800000000000034004C00440044004C003401
:102F48000004000400000000005800640040004035
:102F5800004000400000000000000000003800446D
:102F68000030000800440038000000000020002065
:102F78000078002000200020002000180000000039
:102F8800000000000044004400440044004C0034A9
:102F98000000000000000000004400440028002851
:102FA8000028001000000000000000000054005439
:102FB8000054006C002800280000000000000000F9
:102FC8000044002800100010002800440000000001
:102FD80000000000004400440028002800100010F1
:102FE8000010006000000000007C000800100020B5
:102FF8000040007C000000000018001000100010C5
:103008000020002000100010001000180010001010
:103018000010001000100010001000100010001028
:103028000030001000100010000800080010001008
:10303800001000300000000000000074004C000088
:10304800000000000000000002030405060708094C
:103058000A0B0C0D0E0F10100000000001020304F3
:1030680005060708090A0B0C0D0E0F1000000000DA
:103078000000000000000000010203040607080920
:04308800E900000853
:04308C00C100000877
:10309000070A0000E42800082001000004000000E6
:0430A00000127A00A0
:0400000508002701C7
:00000001FF
